{
  "_format": "hh-sol-artifact-1",
  "contractName": "MyEpicNFT",
  "sourceName": "contracts/MyEpicNFT.sol",
  "abi": [
    {
      "inputs": [],
      "stateMutability": "nonpayable",
      "type": "constructor"
    },
    {
      "anonymous": false,
      "inputs": [
        {
          "indexed": true,
          "internalType": "address",
          "name": "owner",
          "type": "address"
        },
        {
          "indexed": true,
          "internalType": "address",
          "name": "approved",
          "type": "address"
        },
        {
          "indexed": true,
          "internalType": "uint256",
          "name": "tokenId",
          "type": "uint256"
        }
      ],
      "name": "Approval",
      "type": "event"
    },
    {
      "anonymous": false,
      "inputs": [
        {
          "indexed": true,
          "internalType": "address",
          "name": "owner",
          "type": "address"
        },
        {
          "indexed": true,
          "internalType": "address",
          "name": "operator",
          "type": "address"
        },
        {
          "indexed": false,
          "internalType": "bool",
          "name": "approved",
          "type": "bool"
        }
      ],
      "name": "ApprovalForAll",
      "type": "event"
    },
    {
      "anonymous": false,
      "inputs": [
        {
          "indexed": false,
          "internalType": "address",
          "name": "sender",
          "type": "address"
        },
        {
          "indexed": false,
          "internalType": "uint256",
          "name": "tokenId",
          "type": "uint256"
        }
      ],
      "name": "NewEpicNFTMinted",
      "type": "event"
    },
    {
      "anonymous": false,
      "inputs": [
        {
          "indexed": true,
          "internalType": "address",
          "name": "from",
          "type": "address"
        },
        {
          "indexed": true,
          "internalType": "address",
          "name": "to",
          "type": "address"
        },
        {
          "indexed": true,
          "internalType": "uint256",
          "name": "tokenId",
          "type": "uint256"
        }
      ],
      "name": "Transfer",
      "type": "event"
    },
    {
      "inputs": [
        {
          "internalType": "address",
          "name": "to",
          "type": "address"
        },
        {
          "internalType": "uint256",
          "name": "tokenId",
          "type": "uint256"
        }
      ],
      "name": "approve",
      "outputs": [],
      "stateMutability": "nonpayable",
      "type": "function"
    },
    {
      "inputs": [
        {
          "internalType": "address",
          "name": "owner",
          "type": "address"
        }
      ],
      "name": "balanceOf",
      "outputs": [
        {
          "internalType": "uint256",
          "name": "",
          "type": "uint256"
        }
      ],
      "stateMutability": "view",
      "type": "function"
    },
    {
      "inputs": [
        {
          "internalType": "uint256",
          "name": "tokenId",
          "type": "uint256"
        }
      ],
      "name": "getApproved",
      "outputs": [
        {
          "internalType": "address",
          "name": "",
          "type": "address"
        }
      ],
      "stateMutability": "view",
      "type": "function"
    },
    {
      "inputs": [],
      "name": "getTotalNFTsMintedSoFar",
      "outputs": [
        {
          "internalType": "uint256",
          "name": "",
          "type": "uint256"
        }
      ],
      "stateMutability": "view",
      "type": "function"
    },
    {
      "inputs": [
        {
          "internalType": "address",
          "name": "owner",
          "type": "address"
        },
        {
          "internalType": "address",
          "name": "operator",
          "type": "address"
        }
      ],
      "name": "isApprovedForAll",
      "outputs": [
        {
          "internalType": "bool",
          "name": "",
          "type": "bool"
        }
      ],
      "stateMutability": "view",
      "type": "function"
    },
    {
      "inputs": [],
      "name": "makeAnEpicNFT",
      "outputs": [],
      "stateMutability": "nonpayable",
      "type": "function"
    },
    {
      "inputs": [],
      "name": "name",
      "outputs": [
        {
          "internalType": "string",
          "name": "",
          "type": "string"
        }
      ],
      "stateMutability": "view",
      "type": "function"
    },
    {
      "inputs": [
        {
          "internalType": "uint256",
          "name": "tokenId",
          "type": "uint256"
        }
      ],
      "name": "ownerOf",
      "outputs": [
        {
          "internalType": "address",
          "name": "",
          "type": "address"
        }
      ],
      "stateMutability": "view",
      "type": "function"
    },
    {
      "inputs": [
        {
          "internalType": "uint256",
          "name": "tokenId",
          "type": "uint256"
        }
      ],
      "name": "pickRandomColor",
      "outputs": [
        {
          "internalType": "string",
          "name": "",
          "type": "string"
        }
      ],
      "stateMutability": "view",
      "type": "function"
    },
    {
      "inputs": [
        {
          "internalType": "uint256",
          "name": "tokenId",
          "type": "uint256"
        }
      ],
      "name": "pickRandomFirstWord",
      "outputs": [
        {
          "internalType": "string",
          "name": "",
          "type": "string"
        }
      ],
      "stateMutability": "view",
      "type": "function"
    },
    {
      "inputs": [
        {
          "internalType": "uint256",
          "name": "tokenId",
          "type": "uint256"
        }
      ],
      "name": "pickRandomSecondWord",
      "outputs": [
        {
          "internalType": "string",
          "name": "",
          "type": "string"
        }
      ],
      "stateMutability": "view",
      "type": "function"
    },
    {
      "inputs": [
        {
          "internalType": "uint256",
          "name": "tokenId",
          "type": "uint256"
        }
      ],
      "name": "pickRandomThirdWord",
      "outputs": [
        {
          "internalType": "string",
          "name": "",
          "type": "string"
        }
      ],
      "stateMutability": "view",
      "type": "function"
    },
    {
      "inputs": [
        {
          "internalType": "address",
          "name": "from",
          "type": "address"
        },
        {
          "internalType": "address",
          "name": "to",
          "type": "address"
        },
        {
          "internalType": "uint256",
          "name": "tokenId",
          "type": "uint256"
        }
      ],
      "name": "safeTransferFrom",
      "outputs": [],
      "stateMutability": "nonpayable",
      "type": "function"
    },
    {
      "inputs": [
        {
          "internalType": "address",
          "name": "from",
          "type": "address"
        },
        {
          "internalType": "address",
          "name": "to",
          "type": "address"
        },
        {
          "internalType": "uint256",
          "name": "tokenId",
          "type": "uint256"
        },
        {
          "internalType": "bytes",
          "name": "_data",
          "type": "bytes"
        }
      ],
      "name": "safeTransferFrom",
      "outputs": [],
      "stateMutability": "nonpayable",
      "type": "function"
    },
    {
      "inputs": [
        {
          "internalType": "address",
          "name": "operator",
          "type": "address"
        },
        {
          "internalType": "bool",
          "name": "approved",
          "type": "bool"
        }
      ],
      "name": "setApprovalForAll",
      "outputs": [],
      "stateMutability": "nonpayable",
      "type": "function"
    },
    {
      "inputs": [
        {
          "internalType": "bytes4",
          "name": "interfaceId",
          "type": "bytes4"
        }
      ],
      "name": "supportsInterface",
      "outputs": [
        {
          "internalType": "bool",
          "name": "",
          "type": "bool"
        }
      ],
      "stateMutability": "view",
      "type": "function"
    },
    {
      "inputs": [],
      "name": "symbol",
      "outputs": [
        {
          "internalType": "string",
          "name": "",
          "type": "string"
        }
      ],
      "stateMutability": "view",
      "type": "function"
    },
    {
      "inputs": [
        {
          "internalType": "uint256",
          "name": "tokenId",
          "type": "uint256"
        }
      ],
      "name": "tokenURI",
      "outputs": [
        {
          "internalType": "string",
          "name": "",
          "type": "string"
        }
      ],
      "stateMutability": "view",
      "type": "function"
    },
    {
      "inputs": [
        {
          "internalType": "address",
          "name": "from",
          "type": "address"
        },
        {
          "internalType": "address",
          "name": "to",
          "type": "address"
        },
        {
          "internalType": "uint256",
          "name": "tokenId",
          "type": "uint256"
        }
      ],
      "name": "transferFrom",
      "outputs": [],
      "stateMutability": "nonpayable",
      "type": "function"
    }
  ],
  "bytecode": "0x608060405260405180610160016040528061012f8152602001620047b261012f9139600890805190602001906200003892919062000826565b5060405180610100016040528060d38152602001620048e160d39139600990805190602001906200006b92919062000826565b50604051806080016040528060568152602001620049b460569139600a90805190602001906200009d92919062000826565b506040518060a001604052806040518060400160405280600581526020017f466972657900000000000000000000000000000000000000000000000000000081525081526020016040518060400160405280600581526020017f53686f727400000000000000000000000000000000000000000000000000000081525081526020016040518060400160405280600881526020017f466c6f6174696e6700000000000000000000000000000000000000000000000081525081526020016040518060400160405280600881526020017f457468657265616c00000000000000000000000000000000000000000000000081525081526020016040518060400160405280600881526020017f456c647269746368000000000000000000000000000000000000000000000000815250815250600b906005620001e0929190620008b7565b506040518060e001604052806040518060400160405280600681526020017f2048756d616e000000000000000000000000000000000000000000000000000081525081526020016040518060400160405280600481526020017f20456c660000000000000000000000000000000000000000000000000000000081525081526020016040518060400160405280600481526020017f204f72630000000000000000000000000000000000000000000000000000000081525081526020016040518060400160405280600681526020017f20476e6f6d65000000000000000000000000000000000000000000000000000081525081526020016040518060400160405280600a81526020017f20436f6e7374727563740000000000000000000000000000000000000000000081525081526020016040518060400160405280600681526020017f204477617266000000000000000000000000000000000000000000000000000081525081526020016040518060400160405280600681526020017f20416c69656e0000000000000000000000000000000000000000000000000000815250815250600c906007620003999291906200091e565b506040518060a001604052806040518060400160405280600881526020017f27732053776f726400000000000000000000000000000000000000000000000081525081526020016040518060400160405280600981526020017f277320536869656c64000000000000000000000000000000000000000000000081525081526020016040518060400160405280600881526020017f27732054756e696300000000000000000000000000000000000000000000000081525081526020016040518060400160405280600981526020017f277320506f74696f6e000000000000000000000000000000000000000000000081525081526020016040518060400160405280600a81526020017f2773205361746368656c00000000000000000000000000000000000000000000815250815250600d906005620004dc929190620008b7565b506040518060c001604052806040518060400160405280600381526020017f726564000000000000000000000000000000000000000000000000000000000081525081526020016040518060400160405280600781526020017f233038433241380000000000000000000000000000000000000000000000000081525081526020016040518060400160405280600581526020017f626c61636b00000000000000000000000000000000000000000000000000000081525081526020016040518060400160405280600681526020017f79656c6c6f77000000000000000000000000000000000000000000000000000081525081526020016040518060400160405280600481526020017f626c75650000000000000000000000000000000000000000000000000000000081525081526020016040518060400160405280600581526020017f677265656e000000000000000000000000000000000000000000000000000000815250815250600e9060066200065a92919062000985565b503480156200066857600080fd5b506040518060400160405280600981526020017f5371756172654e465400000000000000000000000000000000000000000000008152506040518060400160405280600681526020017f53515541524500000000000000000000000000000000000000000000000000008152508160009080519060200190620006ed92919062000826565b5080600190805190602001906200070692919062000826565b505050620007546040518060400160405280601e81526020017f54686973206973206d79204e465420636f6e74726163742e2057686f612100008152506200075a60201b620012a31760201c565b62000ba6565b620007fa8160405160240162000771919062000aba565b6040516020818303038152906040527f41304fac000000000000000000000000000000000000000000000000000000007bffffffffffffffffffffffffffffffffffffffffffffffffffffffff19166020820180517bffffffffffffffffffffffffffffffffffffffffffffffffffffffff8381831617835250505050620007fd60201b60201c565b50565b60008151905060006a636f6e736f6c652e6c6f679050602083016000808483855afa5050505050565b828054620008349062000b30565b90600052602060002090601f016020900481019282620008585760008555620008a4565b82601f106200087357805160ff1916838001178555620008a4565b82800160010185558215620008a4579182015b82811115620008a357825182559160200191906001019062000886565b5b509050620008b39190620009ec565b5090565b8280548282559060005260206000209081019282156200090b579160200282015b828111156200090a578251829080519060200190620008f992919062000826565b5091602001919060010190620008d8565b5b5090506200091a919062000a0b565b5090565b82805482825590600052602060002090810192821562000972579160200282015b82811115620009715782518290805190602001906200096092919062000826565b50916020019190600101906200093f565b5b50905062000981919062000a0b565b5090565b828054828255906000526020600020908101928215620009d9579160200282015b82811115620009d8578251829080519060200190620009c792919062000826565b5091602001919060010190620009a6565b5b509050620009e8919062000a0b565b5090565b5b8082111562000a07576000816000905550600101620009ed565b5090565b5b8082111562000a2f576000818162000a25919062000a33565b5060010162000a0c565b5090565b50805462000a419062000b30565b6000825580601f1062000a55575062000a76565b601f01602090049060005260206000209081019062000a759190620009ec565b5b50565b600062000a868262000ade565b62000a92818562000ae9565b935062000aa481856020860162000afa565b62000aaf8162000b95565b840191505092915050565b6000602082019050818103600083015262000ad6818462000a79565b905092915050565b600081519050919050565b600082825260208201905092915050565b60005b8381101562000b1a57808201518184015260208101905062000afd565b8381111562000b2a576000848401525b50505050565b6000600282049050600182168062000b4957607f821691505b6020821081141562000b605762000b5f62000b66565b5b50919050565b7f4e487b7100000000000000000000000000000000000000000000000000000000600052602260045260246000fd5b6000601f19601f8301169050919050565b613bfc8062000bb66000396000f3fe608060405234801561001057600080fd5b50600436106101215760003560e01c80636352211e116100ad578063b88d4fde11610071578063b88d4fde14610340578063c575757a1461035c578063c87b56dd1461038c578063de9d132f146103bc578063e985e9c5146103c657610121565b80636352211e1461027657806370a08231146102a657806395d89b41146102d6578063a22cb465146102f4578063b187301f1461031057610121565b8063095ea7b3116100f4578063095ea7b3146101c257806323b872dd146101de5780632de38d68146101fa57806342842e0e1461022a578063514dc8c61461024657610121565b806301ffc9a714610126578063060475901461015657806306fdde0314610174578063081812fc14610192575b600080fd5b610140600480360381019061013b91906125e5565b6103f6565b60405161014d9190612db6565b60405180910390f35b61015e6104d8565b60405161016b9190613013565b60405180910390f35b61017c6104e9565b6040516101899190612dd1565b60405180910390f35b6101ac60048036038101906101a79190612637565b61057b565b6040516101b99190612d26565b60405180910390f35b6101dc60048036038101906101d791906125a9565b610600565b005b6101f860048036038101906101f391906124a3565b610718565b005b610214600480360381019061020f9190612637565b610778565b6040516102219190612dd1565b60405180910390f35b610244600480360381019061023f91906124a3565b610896565b005b610260600480360381019061025b9190612637565b6108b6565b60405161026d9190612dd1565b60405180910390f35b610290600480360381019061028b9190612637565b6109d4565b60405161029d9190612d26565b60405180910390f35b6102c060048036038101906102bb919061243e565b610a86565b6040516102cd9190613013565b60405180910390f35b6102de610b3e565b6040516102eb9190612dd1565b60405180910390f35b61030e6004803603810190610309919061256d565b610bd0565b005b61032a60048036038101906103259190612637565b610be6565b6040516103379190612dd1565b60405180910390f35b61035a600480360381019061035591906124f2565b610d04565b005b61037660048036038101906103719190612637565b610d66565b6040516103839190612dd1565b60405180910390f35b6103a660048036038101906103a19190612637565b610e84565b6040516103b39190612dd1565b60405180910390f35b6103c4610fd6565b005b6103e060048036038101906103db9190612467565b61120f565b6040516103ed9190612db6565b60405180910390f35b60007f80ac58cd000000000000000000000000000000000000000000000000000000007bffffffffffffffffffffffffffffffffffffffffffffffffffffffff1916827bffffffffffffffffffffffffffffffffffffffffffffffffffffffff191614806104c157507f5b5e139f000000000000000000000000000000000000000000000000000000007bffffffffffffffffffffffffffffffffffffffffffffffffffffffff1916827bffffffffffffffffffffffffffffffffffffffffffffffffffffffff1916145b806104d157506104d08261133c565b5b9050919050565b60006104e460076113a6565b905090565b6060600080546104f8906132a7565b80601f0160208091040260200160405190810160405280929190818152602001828054610524906132a7565b80156105715780601f1061054657610100808354040283529160200191610571565b820191906000526020600020905b81548152906001019060200180831161055457829003601f168201915b5050505050905090565b6000610586826113b4565b6105c5576040517f08c379a00000000000000000000000000000000000000000000000000000000081526004016105bc90612f73565b60405180910390fd5b6004600083815260200190815260200160002060009054906101000a900473ffffffffffffffffffffffffffffffffffffffff169050919050565b600061060b826109d4565b90508073ffffffffffffffffffffffffffffffffffffffff168373ffffffffffffffffffffffffffffffffffffffff16141561067c576040517f08c379a000000000000000000000000000000000000000000000000000000000815260040161067390612fd3565b60405180910390fd5b8073ffffffffffffffffffffffffffffffffffffffff1661069b611420565b73ffffffffffffffffffffffffffffffffffffffff1614806106ca57506106c9816106c4611420565b61120f565b5b610709576040517f08c379a000000000000000000000000000000000000000000000000000000000815260040161070090612eb3565b60405180910390fd5b6107138383611428565b505050565b610729610723611420565b826114e1565b610768576040517f08c379a000000000000000000000000000000000000000000000000000000000815260040161075f90612ff3565b60405180910390fd5b6107738383836115bf565b505050565b606060006107ac6107888461181b565b6040516020016107989190612cc0565b6040516020818303038152906040526119c8565b9050600b80549050816107bf9190613353565b9050600b81815481106107fb577f4e487b7100000000000000000000000000000000000000000000000000000000600052603260045260246000fd5b906000526020600020018054610810906132a7565b80601f016020809104026020016040519081016040528092919081815260200182805461083c906132a7565b80156108895780601f1061085e57610100808354040283529160200191610889565b820191906000526020600020905b81548152906001019060200180831161086c57829003601f168201915b5050505050915050919050565b6108b183838360405180602001604052806000815250610d04565b505050565b606060006108ea6108c68461181b565b6040516020016108d69190612d04565b6040516020818303038152906040526119c8565b9050600e80549050816108fd9190613353565b9050600e8181548110610939577f4e487b7100000000000000000000000000000000000000000000000000000000600052603260045260246000fd5b90600052602060002001805461094e906132a7565b80601f016020809104026020016040519081016040528092919081815260200182805461097a906132a7565b80156109c75780601f1061099c576101008083540402835291602001916109c7565b820191906000526020600020905b8154815290600101906020018083116109aa57829003601f168201915b5050505050915050919050565b6000806002600084815260200190815260200160002060009054906101000a900473ffffffffffffffffffffffffffffffffffffffff169050600073ffffffffffffffffffffffffffffffffffffffff168173ffffffffffffffffffffffffffffffffffffffff161415610a7d576040517f08c379a0000000000000000000000000000000000000000000000000000000008152600401610a7490612ef3565b60405180910390fd5b80915050919050565b60008073ffffffffffffffffffffffffffffffffffffffff168273ffffffffffffffffffffffffffffffffffffffff161415610af7576040517f08c379a0000000000000000000000000000000000000000000000000000000008152600401610aee90612ed3565b60405180910390fd5b600360008373ffffffffffffffffffffffffffffffffffffffff1673ffffffffffffffffffffffffffffffffffffffff168152602001908152602001600020549050919050565b606060018054610b4d906132a7565b80601f0160208091040260200160405190810160405280929190818152602001828054610b79906132a7565b8015610bc65780601f10610b9b57610100808354040283529160200191610bc6565b820191906000526020600020905b815481529060010190602001808311610ba957829003601f168201915b5050505050905090565b610be2610bdb611420565b83836119fb565b5050565b60606000610c1a610bf68461181b565b604051602001610c069190612c59565b6040516020818303038152906040526119c8565b9050600c8054905081610c2d9190613353565b9050600c8181548110610c69577f4e487b7100000000000000000000000000000000000000000000000000000000600052603260045260246000fd5b906000526020600020018054610c7e906132a7565b80601f0160208091040260200160405190810160405280929190818152602001828054610caa906132a7565b8015610cf75780601f10610ccc57610100808354040283529160200191610cf7565b820191906000526020600020905b815481529060010190602001808311610cda57829003601f168201915b5050505050915050919050565b610d15610d0f611420565b836114e1565b610d54576040517f08c379a0000000000000000000000000000000000000000000000000000000008152600401610d4b90612ff3565b60405180910390fd5b610d6084848484611b68565b50505050565b60606000610d9a610d768461181b565b604051602001610d869190612c37565b6040516020818303038152906040526119c8565b9050600d8054905081610dad9190613353565b9050600d8181548110610de9577f4e487b7100000000000000000000000000000000000000000000000000000000600052603260045260246000fd5b906000526020600020018054610dfe906132a7565b80601f0160208091040260200160405190810160405280929190818152602001828054610e2a906132a7565b8015610e775780601f10610e4c57610100808354040283529160200191610e77565b820191906000526020600020905b815481529060010190602001808311610e5a57829003601f168201915b5050505050915050919050565b6060610e8f826113b4565b610ece576040517f08c379a0000000000000000000000000000000000000000000000000000000008152600401610ec590612f53565b60405180910390fd5b6000600660008481526020019081526020016000208054610eee906132a7565b80601f0160208091040260200160405190810160405280929190818152602001828054610f1a906132a7565b8015610f675780601f10610f3c57610100808354040283529160200191610f67565b820191906000526020600020905b815481529060010190602001808311610f4a57829003601f168201915b505050505090506000610f78611bc4565b9050600081511415610f8e578192505050610fd1565b600082511115610fc3578082604051602001610fab929190612b77565b60405160208183030381529060405292505050610fd1565b610fcc84611bdb565b925050505b919050565b6000610fe260076113a6565b905060328110611027576040517f08c379a000000000000000000000000000000000000000000000000000000000815260040161101e90612df3565b60405180910390fd5b600061103282610778565b9050600061103f83610be6565b9050600061104c84610d66565b9050600083838360405160200161106593929190612b9b565b60405160208183030381529060405290506000611081866108b6565b90506000600982600a8560405160200161109e9493929190612bcc565b604051602081830303815290604052905060006110e3846110be84611c82565b6040516020016110cf929190612c7b565b604051602081830303815290604052611c82565b90506000816040516020016110f89190612ce2565b60405160208183030381529060405290506111476040518060400160405280601481526020017f0a2d2d2d2d2d2d2d2d2d2d2d2d2d2d2d2d2d2d2d0000000000000000000000008152506112a3565b61116f8160405160200161115b9190612c15565b6040516020818303038152906040526112a3565b6111ad6040518060400160405280601481526020017f0a2d2d2d2d2d2d2d2d2d2d2d2d2d2d2d2d2d2d2d0000000000000000000000008152506112a3565b6111b7338a611e21565b6111c18982611e3f565b6111cb6007611eb3565b7febb98688741ffa4c7589bf325de30cf7becb63de567842e1ccdb6cb949fdc82c338a6040516111fc929190612d8d565b60405180910390a1505050505050505050565b6000600560008473ffffffffffffffffffffffffffffffffffffffff1673ffffffffffffffffffffffffffffffffffffffff16815260200190815260200160002060008373ffffffffffffffffffffffffffffffffffffffff1673ffffffffffffffffffffffffffffffffffffffff16815260200190815260200160002060009054906101000a900460ff16905092915050565b611339816040516024016112b79190612dd1565b6040516020818303038152906040527f41304fac000000000000000000000000000000000000000000000000000000007bffffffffffffffffffffffffffffffffffffffffffffffffffffffff19166020820180517bffffffffffffffffffffffffffffffffffffffffffffffffffffffff8381831617835250505050611ec9565b50565b60007f01ffc9a7000000000000000000000000000000000000000000000000000000007bffffffffffffffffffffffffffffffffffffffffffffffffffffffff1916827bffffffffffffffffffffffffffffffffffffffffffffffffffffffff1916149050919050565b600081600001549050919050565b60008073ffffffffffffffffffffffffffffffffffffffff166002600084815260200190815260200160002060009054906101000a900473ffffffffffffffffffffffffffffffffffffffff1673ffffffffffffffffffffffffffffffffffffffff1614159050919050565b600033905090565b816004600083815260200190815260200160002060006101000a81548173ffffffffffffffffffffffffffffffffffffffff021916908373ffffffffffffffffffffffffffffffffffffffff160217905550808273ffffffffffffffffffffffffffffffffffffffff1661149b836109d4565b73ffffffffffffffffffffffffffffffffffffffff167f8c5be1e5ebec7d5bd14f71427d1e84f3dd0314c0f7b2291e5b200ac8c7c3b92560405160405180910390a45050565b60006114ec826113b4565b61152b576040517f08c379a000000000000000000000000000000000000000000000000000000000815260040161152290612e93565b60405180910390fd5b6000611536836109d4565b90508073ffffffffffffffffffffffffffffffffffffffff168473ffffffffffffffffffffffffffffffffffffffff1614806115a557508373ffffffffffffffffffffffffffffffffffffffff1661158d8461057b565b73ffffffffffffffffffffffffffffffffffffffff16145b806115b657506115b5818561120f565b5b91505092915050565b8273ffffffffffffffffffffffffffffffffffffffff166115df826109d4565b73ffffffffffffffffffffffffffffffffffffffff1614611635576040517f08c379a000000000000000000000000000000000000000000000000000000000815260040161162c90612f93565b60405180910390fd5b600073ffffffffffffffffffffffffffffffffffffffff168273ffffffffffffffffffffffffffffffffffffffff1614156116a5576040517f08c379a000000000000000000000000000000000000000000000000000000000815260040161169c90612e53565b60405180910390fd5b6116b0838383611ef2565b6116bb600082611428565b6001600360008573ffffffffffffffffffffffffffffffffffffffff1673ffffffffffffffffffffffffffffffffffffffff168152602001908152602001600020600082825461170b91906131bd565b925050819055506001600360008473ffffffffffffffffffffffffffffffffffffffff1673ffffffffffffffffffffffffffffffffffffffff168152602001908152602001600020600082825461176291906130dc565b92505081905550816002600083815260200190815260200160002060006101000a81548173ffffffffffffffffffffffffffffffffffffffff021916908373ffffffffffffffffffffffffffffffffffffffff160217905550808273ffffffffffffffffffffffffffffffffffffffff168473ffffffffffffffffffffffffffffffffffffffff167fddf252ad1be2c89b69c2b068fc378daa952ba7f163c4a11628f55a4df523b3ef60405160405180910390a4505050565b60606000821415611863576040518060400160405280600181526020017f300000000000000000000000000000000000000000000000000000000000000081525090506119c3565b600082905060005b6000821461189557808061187e9061330a565b915050600a8261188e9190613132565b915061186b565b60008167ffffffffffffffff8111156118d7577f4e487b7100000000000000000000000000000000000000000000000000000000600052604160045260246000fd5b6040519080825280601f01601f1916602001820160405280156119095781602001600182028036833780820191505090505b5090505b600085146119bc5760018261192291906131bd565b9150600a856119319190613353565b603061193d91906130dc565b60f81b818381518110611979577f4e487b7100000000000000000000000000000000000000000000000000000000600052603260045260246000fd5b60200101907effffffffffffffffffffffffffffffffffffffffffffffffffffffffffffff1916908160001a905350600a856119b59190613132565b945061190d565b8093505050505b919050565b6000816040516020016119db9190612b60565b6040516020818303038152906040528051906020012060001c9050919050565b8173ffffffffffffffffffffffffffffffffffffffff168373ffffffffffffffffffffffffffffffffffffffff161415611a6a576040517f08c379a0000000000000000000000000000000000000000000000000000000008152600401611a6190612e73565b60405180910390fd5b80600560008573ffffffffffffffffffffffffffffffffffffffff1673ffffffffffffffffffffffffffffffffffffffff16815260200190815260200160002060008473ffffffffffffffffffffffffffffffffffffffff1673ffffffffffffffffffffffffffffffffffffffff16815260200190815260200160002060006101000a81548160ff0219169083151502179055508173ffffffffffffffffffffffffffffffffffffffff168373ffffffffffffffffffffffffffffffffffffffff167f17307eab39ab6107e8899845ad3d59bd9653f200f220920489ca2b5937696c3183604051611b5b9190612db6565b60405180910390a3505050565b611b738484846115bf565b611b7f84848484611ef7565b611bbe576040517f08c379a0000000000000000000000000000000000000000000000000000000008152600401611bb590612e13565b60405180910390fd5b50505050565b606060405180602001604052806000815250905090565b6060611be6826113b4565b611c25576040517f08c379a0000000000000000000000000000000000000000000000000000000008152600401611c1c90612fb3565b60405180910390fd5b6000611c2f611bc4565b90506000815111611c4f5760405180602001604052806000815250611c7a565b80611c598461181b565b604051602001611c6a929190612b77565b6040516020818303038152906040525b915050919050565b6060600082511415611ca557604051806020016040528060008152509050611e1c565b6000604051806060016040528060408152602001613b876040913990506000600360028551611cd491906130dc565b611cde9190613132565b6004611cea9190613163565b90506000602082611cfb91906130dc565b67ffffffffffffffff811115611d3a577f4e487b7100000000000000000000000000000000000000000000000000000000600052604160045260246000fd5b6040519080825280601f01601f191660200182016040528015611d6c5781602001600182028036833780820191505090505b509050818152600183018586518101602084015b81831015611ddb576003830192508251603f8160121c168501518253600182019150603f81600c1c168501518253600182019150603f8160061c168501518253600182019150603f8116850151825360018201915050611d80565b600389510660018114611df55760028114611e0557611e10565b613d3d60f01b6002830352611e10565b603d60f81b60018303525b50505050508093505050505b919050565b611e3b82826040518060200160405280600081525061208e565b5050565b611e48826113b4565b611e87576040517f08c379a0000000000000000000000000000000000000000000000000000000008152600401611e7e90612f13565b60405180910390fd5b80600660008481526020019081526020016000209080519060200190611eae9291906122ca565b505050565b6001816000016000828254019250508190555050565b60008151905060006a636f6e736f6c652e6c6f679050602083016000808483855afa5050505050565b505050565b6000611f188473ffffffffffffffffffffffffffffffffffffffff166120e9565b15612081578373ffffffffffffffffffffffffffffffffffffffff1663150b7a02611f41611420565b8786866040518563ffffffff1660e01b8152600401611f639493929190612d41565b602060405180830381600087803b158015611f7d57600080fd5b505af1925050508015611fae57506040513d601f19601f82011682018060405250810190611fab919061260e565b60015b612031573d8060008114611fde576040519150601f19603f3d011682016040523d82523d6000602084013e611fe3565b606091505b50600081511415612029576040517f08c379a000000000000000000000000000000000000000000000000000000000815260040161202090612e13565b60405180910390fd5b805181602001fd5b63150b7a0260e01b7bffffffffffffffffffffffffffffffffffffffffffffffffffffffff1916817bffffffffffffffffffffffffffffffffffffffffffffffffffffffff191614915050612086565b600190505b949350505050565b61209883836120fc565b6120a56000848484611ef7565b6120e4576040517f08c379a00000000000000000000000000000000000000000000000000000000081526004016120db90612e13565b60405180910390fd5b505050565b600080823b905060008111915050919050565b600073ffffffffffffffffffffffffffffffffffffffff168273ffffffffffffffffffffffffffffffffffffffff16141561216c576040517f08c379a000000000000000000000000000000000000000000000000000000000815260040161216390612f33565b60405180910390fd5b612175816113b4565b156121b5576040517f08c379a00000000000000000000000000000000000000000000000000000000081526004016121ac90612e33565b60405180910390fd5b6121c160008383611ef2565b6001600360008473ffffffffffffffffffffffffffffffffffffffff1673ffffffffffffffffffffffffffffffffffffffff168152602001908152602001600020600082825461221191906130dc565b92505081905550816002600083815260200190815260200160002060006101000a81548173ffffffffffffffffffffffffffffffffffffffff021916908373ffffffffffffffffffffffffffffffffffffffff160217905550808273ffffffffffffffffffffffffffffffffffffffff16600073ffffffffffffffffffffffffffffffffffffffff167fddf252ad1be2c89b69c2b068fc378daa952ba7f163c4a11628f55a4df523b3ef60405160405180910390a45050565b8280546122d6906132a7565b90600052602060002090601f0160209004810192826122f8576000855561233f565b82601f1061231157805160ff191683800117855561233f565b8280016001018555821561233f579182015b8281111561233e578251825591602001919060010190612323565b5b50905061234c9190612350565b5090565b5b80821115612369576000816000905550600101612351565b5090565b600061238061237b84613053565b61302e565b90508281526020810184848401111561239857600080fd5b6123a3848285613265565b509392505050565b6000813590506123ba81613b2a565b92915050565b6000813590506123cf81613b41565b92915050565b6000813590506123e481613b58565b92915050565b6000815190506123f981613b58565b92915050565b600082601f83011261241057600080fd5b813561242084826020860161236d565b91505092915050565b60008135905061243881613b6f565b92915050565b60006020828403121561245057600080fd5b600061245e848285016123ab565b91505092915050565b6000806040838503121561247a57600080fd5b6000612488858286016123ab565b9250506020612499858286016123ab565b9150509250929050565b6000806000606084860312156124b857600080fd5b60006124c6868287016123ab565b93505060206124d7868287016123ab565b92505060406124e886828701612429565b9150509250925092565b6000806000806080858703121561250857600080fd5b6000612516878288016123ab565b9450506020612527878288016123ab565b935050604061253887828801612429565b925050606085013567ffffffffffffffff81111561255557600080fd5b612561878288016123ff565b91505092959194509250565b6000806040838503121561258057600080fd5b600061258e858286016123ab565b925050602061259f858286016123c0565b9150509250929050565b600080604083850312156125bc57600080fd5b60006125ca858286016123ab565b92505060206125db85828601612429565b9150509250929050565b6000602082840312156125f757600080fd5b6000612605848285016123d5565b91505092915050565b60006020828403121561262057600080fd5b600061262e848285016123ea565b91505092915050565b60006020828403121561264957600080fd5b600061265784828501612429565b91505092915050565b612669816131f1565b82525050565b61267881613203565b82525050565b600061268982613099565b61269381856130af565b93506126a3818560208601613274565b6126ac81613440565b840191505092915050565b60006126c2826130a4565b6126cc81856130c0565b93506126dc818560208601613274565b6126e581613440565b840191505092915050565b60006126fb826130a4565b61270581856130d1565b9350612715818560208601613274565b80840191505092915050565b6000815461272e816132a7565b61273881866130d1565b94506001821660008114612753576001811461276457612797565b60ff19831686528186019350612797565b61276d85613084565b60005b8381101561278f57815481890152600182019150602081019050612770565b838801955050505b50505092915050565b60006127ad6008836130c0565b91506127b882613451565b602082019050919050565b60006127d06025836130d1565b91506127db8261347a565b602582019050919050565b60006127f36032836130c0565b91506127fe826134c9565b604082019050919050565b6000612816601c836130c0565b915061282182613518565b602082019050919050565b6000612839600a836130d1565b915061284482613541565b600a82019050919050565b600061285c6024836130c0565b91506128678261356a565b604082019050919050565b600061287f6019836130c0565b915061288a826135b9565b602082019050919050565b60006128a26063836130d1565b91506128ad826135e2565b606382019050919050565b60006128c5600b836130d1565b91506128d08261367d565b600b82019050919050565b60006128e8602c836130c0565b91506128f3826136a6565b604082019050919050565b600061290b600d836130d1565b9150612916826136f5565b600d82019050919050565b600061292e6038836130c0565b91506129398261371e565b604082019050919050565b6000612951602a836130c0565b915061295c8261376d565b604082019050919050565b60006129746029836130c0565b915061297f826137bc565b604082019050919050565b6000612997602e836130c0565b91506129a28261380b565b604082019050919050565b60006129ba6002836130d1565b91506129c58261385a565b600282019050919050565b60006129dd6020836130c0565b91506129e882613883565b602082019050919050565b6000612a006031836130c0565b9150612a0b826138ac565b604082019050919050565b6000612a23602c836130c0565b9150612a2e826138fb565b604082019050919050565b6000612a466029836130c0565b9150612a518261394a565b604082019050919050565b6000612a69602f836130c0565b9150612a7482613999565b604082019050919050565b6000612a8c600a836130d1565b9150612a97826139e8565b600a82019050919050565b6000612aaf6021836130c0565b9150612aba82613a11565b604082019050919050565b6000612ad2600a836130d1565b9150612add82613a60565b600a82019050919050565b6000612af5601d836130d1565b9150612b0082613a89565b601d82019050919050565b6000612b186031836130c0565b9150612b2382613ab2565b604082019050919050565b6000612b3b6005836130d1565b9150612b4682613b01565b600582019050919050565b612b5a8161325b565b82525050565b6000612b6c82846126f0565b915081905092915050565b6000612b8382856126f0565b9150612b8f82846126f0565b91508190509392505050565b6000612ba782866126f0565b9150612bb382856126f0565b9150612bbf82846126f0565b9150819050949350505050565b6000612bd88287612721565b9150612be482866126f0565b9150612bf08285612721565b9150612bfc82846126f0565b9150612c07826128fe565b915081905095945050505050565b6000612c20826127c3565b9150612c2c82846126f0565b915081905092915050565b6000612c428261282c565b9150612c4e82846126f0565b915081905092915050565b6000612c64826128b8565b9150612c7082846126f0565b915081905092915050565b6000612c8682612a7f565b9150612c9282856126f0565b9150612c9d82612895565b9150612ca982846126f0565b9150612cb4826129ad565b91508190509392505050565b6000612ccb82612ac5565b9150612cd782846126f0565b915081905092915050565b6000612ced82612ae8565b9150612cf982846126f0565b915081905092915050565b6000612d0f82612b2e565b9150612d1b82846126f0565b915081905092915050565b6000602082019050612d3b6000830184612660565b92915050565b6000608082019050612d566000830187612660565b612d636020830186612660565b612d706040830185612b51565b8181036060830152612d82818461267e565b905095945050505050565b6000604082019050612da26000830185612660565b612daf6020830184612b51565b9392505050565b6000602082019050612dcb600083018461266f565b92915050565b60006020820190508181036000830152612deb81846126b7565b905092915050565b60006020820190508181036000830152612e0c816127a0565b9050919050565b60006020820190508181036000830152612e2c816127e6565b9050919050565b60006020820190508181036000830152612e4c81612809565b9050919050565b60006020820190508181036000830152612e6c8161284f565b9050919050565b60006020820190508181036000830152612e8c81612872565b9050919050565b60006020820190508181036000830152612eac816128db565b9050919050565b60006020820190508181036000830152612ecc81612921565b9050919050565b60006020820190508181036000830152612eec81612944565b9050919050565b60006020820190508181036000830152612f0c81612967565b9050919050565b60006020820190508181036000830152612f2c8161298a565b9050919050565b60006020820190508181036000830152612f4c816129d0565b9050919050565b60006020820190508181036000830152612f6c816129f3565b9050919050565b60006020820190508181036000830152612f8c81612a16565b9050919050565b60006020820190508181036000830152612fac81612a39565b9050919050565b60006020820190508181036000830152612fcc81612a5c565b9050919050565b60006020820190508181036000830152612fec81612aa2565b9050919050565b6000602082019050818103600083015261300c81612b0b565b9050919050565b60006020820190506130286000830184612b51565b92915050565b6000613038613049565b905061304482826132d9565b919050565b6000604051905090565b600067ffffffffffffffff82111561306e5761306d613411565b5b61307782613440565b9050602081019050919050565b60008190508160005260206000209050919050565b600081519050919050565b600081519050919050565b600082825260208201905092915050565b600082825260208201905092915050565b600081905092915050565b60006130e78261325b565b91506130f28361325b565b9250827fffffffffffffffffffffffffffffffffffffffffffffffffffffffffffffffff0382111561312757613126613384565b5b828201905092915050565b600061313d8261325b565b91506131488361325b565b925082613158576131576133b3565b5b828204905092915050565b600061316e8261325b565b91506131798361325b565b9250817fffffffffffffffffffffffffffffffffffffffffffffffffffffffffffffffff04831182151516156131b2576131b1613384565b5b828202905092915050565b60006131c88261325b565b91506131d38361325b565b9250828210156131e6576131e5613384565b5b828203905092915050565b60006131fc8261323b565b9050919050565b60008115159050919050565b60007fffffffff0000000000000000000000000000000000000000000000000000000082169050919050565b600073ffffffffffffffffffffffffffffffffffffffff82169050919050565b6000819050919050565b82818337600083830152505050565b60005b83811015613292578082015181840152602081019050613277565b838111156132a1576000848401525b50505050565b600060028204905060018216806132bf57607f821691505b602082108114156132d3576132d26133e2565b5b50919050565b6132e282613440565b810181811067ffffffffffffffff8211171561330157613300613411565b5b80604052505050565b60006133158261325b565b91507fffffffffffffffffffffffffffffffffffffffffffffffffffffffffffffffff82141561334857613347613384565b5b600182019050919050565b600061335e8261325b565b91506133698361325b565b925082613379576133786133b3565b5b828206905092915050565b7f4e487b7100000000000000000000000000000000000000000000000000000000600052601160045260246000fd5b7f4e487b7100000000000000000000000000000000000000000000000000000000600052601260045260246000fd5b7f4e487b7100000000000000000000000000000000000000000000000000000000600052602260045260246000fd5b7f4e487b7100000000000000000000000000000000000000000000000000000000600052604160045260246000fd5b6000601f19601f8301169050919050565b7f534f4c44204f5554000000000000000000000000000000000000000000000000600082015250565b7f68747470733a2f2f6e6674707265766965772e30786465762e636f6465732f3f60008201527f636f64653d000000000000000000000000000000000000000000000000000000602082015250565b7f4552433732313a207472616e7366657220746f206e6f6e20455243373231526560008201527f63656976657220696d706c656d656e7465720000000000000000000000000000602082015250565b7f4552433732313a20746f6b656e20616c7265616479206d696e74656400000000600082015250565b7f54484952445f574f524400000000000000000000000000000000000000000000600082015250565b7f4552433732313a207472616e7366657220746f20746865207a65726f2061646460008201527f7265737300000000000000000000000000000000000000000000000000000000602082015250565b7f4552433732313a20617070726f766520746f2063616c6c657200000000000000600082015250565b7f222c20226465736372697074696f6e223a20224120686967686c79206163636c60008201527f61696d656420636f6c6c656374696f6e206f6620737175617265732e222c202260208201527f696d616765223a2022646174613a696d6167652f7376672b786d6c3b6261736560408201527f36342c0000000000000000000000000000000000000000000000000000000000606082015250565b7f5345434f4e445f574f5244000000000000000000000000000000000000000000600082015250565b7f4552433732313a206f70657261746f7220717565727920666f72206e6f6e657860008201527f697374656e7420746f6b656e0000000000000000000000000000000000000000602082015250565b7f3c2f746578743e3c2f7376673e00000000000000000000000000000000000000600082015250565b7f4552433732313a20617070726f76652063616c6c6572206973206e6f74206f7760008201527f6e6572206e6f7220617070726f76656420666f7220616c6c0000000000000000602082015250565b7f4552433732313a2062616c616e636520717565727920666f7220746865207a6560008201527f726f206164647265737300000000000000000000000000000000000000000000602082015250565b7f4552433732313a206f776e657220717565727920666f72206e6f6e657869737460008201527f656e7420746f6b656e0000000000000000000000000000000000000000000000602082015250565b7f45524337323155524953746f726167653a2055524920736574206f66206e6f6e60008201527f6578697374656e7420746f6b656e000000000000000000000000000000000000602082015250565b7f227d000000000000000000000000000000000000000000000000000000000000600082015250565b7f4552433732313a206d696e7420746f20746865207a65726f2061646472657373600082015250565b7f45524337323155524953746f726167653a2055524920717565727920666f722060008201527f6e6f6e6578697374656e7420746f6b656e000000000000000000000000000000602082015250565b7f4552433732313a20617070726f76656420717565727920666f72206e6f6e657860008201527f697374656e7420746f6b656e0000000000000000000000000000000000000000602082015250565b7f4552433732313a207472616e73666572206f6620746f6b656e2074686174206960008201527f73206e6f74206f776e0000000000000000000000000000000000000000000000602082015250565b7f4552433732314d657461646174613a2055524920717565727920666f72206e6f60008201527f6e6578697374656e7420746f6b656e0000000000000000000000000000000000602082015250565b7f7b226e616d65223a202200000000000000000000000000000000000000000000600082015250565b7f4552433732313a20617070726f76616c20746f2063757272656e74206f776e6560008201527f7200000000000000000000000000000000000000000000000000000000000000602082015250565b7f46495253545f574f524400000000000000000000000000000000000000000000600082015250565b7f646174613a6170706c69636174696f6e2f6a736f6e3b6261736536342c000000600082015250565b7f4552433732313a207472616e736665722063616c6c6572206973206e6f74206f60008201527f776e6572206e6f7220617070726f766564000000000000000000000000000000602082015250565b7f434f4c4f52000000000000000000000000000000000000000000000000000000600082015250565b613b33816131f1565b8114613b3e57600080fd5b50565b613b4a81613203565b8114613b5557600080fd5b50565b613b618161320f565b8114613b6c57600080fd5b50565b613b788161325b565b8114613b8357600080fd5b5056fe4142434445464748494a4b4c4d4e4f505152535455565758595a6162636465666768696a6b6c6d6e6f707172737475767778797a303132333435363738392b2fa26469706673582212207d70e1e28a3e3e62ce9cac7d1f6186c82d59b2c6b1f2be21434c524e87e8300f64736f6c634300080400333c73766720786d6c6e733d27687474703a2f2f7777772e77332e6f72672f323030302f73766727207072657365727665417370656374526174696f3d27784d696e594d696e206d656574272076696577426f783d273020302033353020333530273e3c7374796c653e2e62617365207b2066696c6c3a2077686974653b20666f6e742d66616d696c793a2073657269663b20666f6e742d73697a653a20323470783b207d3c2f7374796c653e3c726563742077696474683d273130302527206865696768743d2731303025272066696c6c3d27626c61636b27202f3e3c7465787420783d273530252720793d273530252720636c6173733d27626173652720646f6d696e616e742d626173656c696e653d276d6964646c652720746578742d616e63686f723d276d6964646c65273e3c73766720786d6c6e733d27687474703a2f2f7777772e77332e6f72672f323030302f73766727207072657365727665417370656374526174696f3d27784d696e594d696e206d656574272076696577426f783d273020302033353020333530273e3c7374796c653e2e62617365207b2066696c6c3a2077686974653b20666f6e742d66616d696c793a2073657269663b20666f6e742d73697a653a20323470783b207d3c2f7374796c653e3c726563742077696474683d273130302527206865696768743d2731303025272066696c6c3d27272f3e3c7465787420783d273530252720793d273530252720636c6173733d27626173652720646f6d696e616e742d626173656c696e653d276d6964646c652720746578742d616e63686f723d276d6964646c65273e",
  "linkReferences": {},
  "deployedLinkReferences": {}
}